:020000040001F9
:1070200018F09FE518F09FE518F09FE518F09FE530
:1070300018F09FE518F09FE518F09FE518F09FE520
:10704000A4700100607001006470010068700100AC
:107050006C700100747001007070010078700100A4
:10706000820000EA830000EA840000EA850000EA6A
:10707000AA0000EA850000EAA00000EA2407400018
:10708000A81D00000C334000200000001C3A400006
:10709000F00200002C334000F00600000C3D4000E0
:1070A000F0020000DF00A0E300F021E130001FE566
:1070B00030101FE5003081E00040A0E103D0A0E1E6
:1070C00084219FE5030054E104208434FCFFFF3A4F
:1070D000D700A0E300F021E15C001FE55C101FE594
:1070E000003081E00040A0E103D0A0E158219FE5FD
:1070F000030054E104208434FCFFFF3ADB00A0E3EA
:1071000000F021E188001FE588101FE5003081E0D4
:107110000040A0E103D0A0E12C219FE5030054E151
:1071200004208434FCFFFF3AD200A0E300F021E108
:10713000AC001FE5AC101FE5003081E00040A0E18D
:1071400003D0A0E104219FE5030054E1042084342E
:10715000FCFFFF3AD100A0E300F021E1C8001FE5E9
:10716000C8101FE5003081E00040A0E103D0A0E19D
:10717000DC209FE5030054E104208434FCFFFF3A47
:107180000080A0E30090A0E300A0A0E300B0A0E393
:1071900000C0A0E3D300A0E300F021E110011FE54F
:1071A00010111FE5003081E00040A0E103D0A0E114
:1071B000A0209FE5030054E104208434FCFFFF3A43
:1071C0000E0000EB170000EB0000A0E30010A0E3AE
:1071D0000020A0E30030A0E30040A0E30050A0E3C3
:1071E0000060A0E30070A0E30080A0E30090A0E3B3
:1071F00000A0A0E300B0A0E300C0A0E3250000EAE7
:1072000054009FE554109FE554209FE50130A0E114
:10721000023083E0030051E10440903404408134A3
:10722000FBFFFF3A1EFF2FE138009FE538109FE576
:10723000003081E00040A0E10020A0E3030054E121
:1072400004208434FCFFFF3A1EFF2FE1AAAAAAAA59
:10725000CCCCCCCCDDDDDDDDBBBBBBBBE4F70100C2
:10726000200640000401000024074000A81D000083
:1072700004F01FE5BD12000004F01FE5BF1200007E
:1072800004F01FE5C112000004F01FE5C312000066
:1072900004F01FE5C512000004F01FE5C5740100ED
:1072A00000000000000000000000000000000000DE
:1072B00000000000000000000000000000000000CE
:1072C00000000000000000000000000000000000BE
:1072D00000000000000000000000000000000000AE
:1072E000000000000000000000000000000000009E
:1072F000000000000000000000000000000000008E
:107300000F502DE92F0900FB0F50BDE804F05EE29D
:10731000000000000000000000000000000000006D
:107320000F502DE90D0900FB0F50BDE804F05EE29F
:1073300008B500920B000200A349A4A002F08CFA49
:1073400008BD1CB501930B009F49009202000B3150
:10735000A7A002F081FA1CBD1CB501930B009A494D
:10736000009202001831A2A002F076FA1CBD0B00B8
:107370009549020010B52431AAA002F06DFA10BDA3
:1073800010B504000100B3A002F066FAFEF75AEA55
:10739000FEF762EA02F023FBB248844206D0B2480C
:1073A000844203D00A2002F035FCFEE710BD1CB574
:1073B000AE49062200206B4601F0A1FF6846007826
:1073C000FF2813D168464078FF280FD1684680789F
:1073D000FF280BD16846C078FF2807D1684600799E
:1073E000FF2803D168464079FF2804D0A048062230
:1073F0006946FEF7F1F91CBD00200121C90588612D
:10740000704710B5112002F064F810BD0EB50020D1
:1074100002F013F9FF20013001F0E1FD012168467F
:107420000170172141700121C94381800021C18071
:10743000904802900120C005416A02221143416236
:10744000416A0722120391434162416A02121143C9
:107450004162684603F02EF80EBD10B586484C21F7
:10746000FEF7D4F985498448016085494160854922
:1074700081608549C16085490161854941618549CE
:1074800081618549C16185490162854941628549BA
:1074900081628549C16285490163854941638549A6
:1074A00081638549C163854941648549816410BD13
:1074B00084498548016085494160854981608549E5
:1074C000C160704702F094F802F08EF801F08CFF72
:1074D00002F08EF9FFF7ECFF02F031F901F070FED7
:1074E0006548FFF7BAFF6248017840790818FEF74F
:1074F0006AF900F076FF78480168021211430160D2
:1075000003214160FEF7B2E9FEF7B8E973A002F08B
:10751000A3F9754E01F05BFDFEF794E90500FEF757
:107520009CE904003078012801D102F065FB01F0EC
:107530006BFD810706D502F07DF8002804D102F02A
:1075400097F803E0C00701D002F0C0F800F011F88E
:10755000002D01D1FEF78AE9002CDBD1FEF78EE980
:10756000D8E701000020002901D0022900D15648A7
:1075700070475E4810B5006800685D49884203D0D6
:107580005CA002F068F9FBE766480068006866499D
:10759000884203D065A002F05EF9FBE76F480068FF
:1075A00000686F49884203D06EA002F054F9FBE7EF
:1075B0007848006800687849884203D077A002F0D4
:1075C0004AF9FBE710BD000052F0010025732C635F
:1075D0006F6E646974696F6E2025732C66696C65C3
:1075E0002025732C6C696E65203D2025640D0A00F2
:1075F00025732C706172616D30203D2025642C70E4
:107600006172616D31203D2025642C66696C6520B6
:107610003D2025732C6C696E65203D2025640D0A84
:107620000000000025732C64617461203D202564F6
:107630002C6C656E677468203D2025642C66696C2F
:1076400065203D2025732C6C696E65203D202564E6
:107650000D0A00006572726F72203D2025780D0AB8
:1076600000000000C3C3C3C3A5A5A5A5FC9F0000DF
:10767000240040000374010050014000B5B5010032
:10768000E9B501001BB401000DB5010039B50100D9
:107690008BB40100E58E01008F8F0100DF8F0100A8
:1076A000BF900100399101000D9101001B91010073
:1076B0008173010031730100437301001D980100C3
:1076C000C1990100F799010024074000399A01008F
:1076D000BF990100DB990100400080007374617262
:1076E00074200D0A00000000CC06400084700100E8
:1076F000AAAAAAAA537461636B5F496E7465677224
:107700006974795F436865636B20535441434B5FF1
:10771000424153455F554E55534544206661696C5F
:10772000210D0A0094700100BBBBBBBB53746163A5
:107730006B5F496E746567726974795F43686563EE
:107740006B20535441434B5F424153455F53564373
:10775000206661696C210D0A000000009C70010028
:10776000DDDDDDDD537461636B5F496E74656772E7
:107770006974795F436865636B20535441434B5F81
:10778000424153455F464951206661696C210D0AAB
:10779000000000008C700100CCCCCCCC5374616331
:1077A0006B5F496E746567726974795F436865637E
:1077B0006B20535441434B5F424153455F49525103
:1077C000206661696C210D0A0000000070B506009A
:1077D0000D00F7A002F040F8002404E0315DF6A0AF
:1077E00002F03AF8641CAC42F8DBF5A002F034F881
:1077F00070BD0300992010B5002202E09C5C60403F
:10780000521C8A42FADB10BD30B50300ED48EE4C45
:107810000FE01A781202504000225B1C050402D5CA
:107820004000604000E040000004000C521C082AA8
:10783000F4DB0A00491E0906090E002AE9D130BD11
:1078400070B50C000600032916D3E01E0106090ED0
:107850003000FFF7CEFF3519203D697F88420BD1FC
:10786000A41E2106090E3000FFF7CEFFA97FEA7F94
:1078700009028918884201D0FF2070BD002070BD28
:107880000B2901D0FF207047DAE700B5A1B08021B5
:107890006846FDF7BBFF8022110201206B4601F014
:1078A0002EFD8021684602F006F921B000BD70B5BA
:1078B0000C000500802901D0C4A024E0FFF7C0FF20
:1078C000002801D0C4A01EE021002800FFF7B8FF67
:1078D00000281BD12E00A81D06F0EAFC0A2815D3AB
:1078E000B01D06F0E5FC1C2810D80126F603220086
:1078F0003100012001F0BAFC2B00220031000120F0
:1079000001F0C6FCB9A001F0A7FF70BDBBA0FAE76B
:10791000BF4A0021535C834201D100207047491CBB
:107920001229F7D3FF20704710B50400FFF7F0FFCE
:10793000002802D0B7A001F08FFF02220021200012
:1079400001F05EFD200001F0A3FD02002100B6A0C1
:1079500001F082FF10BD70B50C000500FFF7D8FFE5
:10796000002802D0ABA001F077FF022201212800FD
:1079700001F046FD002C01D0012100E0002128008B
:1079800001F094FD22002900ADA001F065FF70BD5B
:1079900010B50400072802D9B0A001F05DFF012155
:1079A000200002F003FD10BD10B5B2A001F054FF9D
:1079B000FFF778EB10BD70B5954D0400483DA878F1
:1079C000002805D00020A8702000FFF770FF70BDD0
:1079D0000C222100AAA0FDF724FF002826D00C22AB
:1079E0002100ABA0FDF71DFF002825D00B222100B0
:1079F000ABA0FDF716FF002822D00B222100ABA080
:107A0000FDF70FFF00281FD00A222100AAA0FDF7D2
:107A100008FF00281DD008222100AAA0FDF701FFC1
:107A200000281AD0AAA001F017FF70BDABA001F08A
:107A300013FFFFF72AFF70BD0120A870AAA0F2E78C
:107A4000E07AFFF771FF70BD217BE07AFFF783FFDB
:107A500070BDA07AFFF79CFF70BDFFF7A5FF70BD5A
:107A6000F0B500224B089E4621E000231C00560082
:107A70009C4610E06700855BC75BBD4203D25B1C80
:107A80001B041B0C06E0BD4204D165466D1C2D0491
:107A90002D0CAC46641C8C42ECDB9E4506D3644640
:107AA0001C19744502D35100405AF0BD521C8A4241
:107AB000DBDBF0BD564810B50838914C0168E08812
:107AC0000B00FDF7E4EE093C060C131A20272E35B7
:107AD0003C0000010A21FDF743FE1C382EE017216F
:107AE00048430A21FDF73CFE253827E01C21484386
:107AF0000A21FDF735FE2F3820E040010A21FDF76D
:107B00002FFE32381AE0252148430A21FDF728FECE
:107B1000393813E02D2148430A21FDF721FE45386D
:107B20000CE0342148430A21FDF71AFE4B3805E0EA
:107B30003E2148430A21FDF713FE5938608210BDEB
:107B4000334810B508386E4C016820890B00FDF7EA
:107B50009EEE09E7060C131A2027D9E0E700000182
:107B60000A21FDF7FDFD1C38D9E0172148430A2101
:107B7000FDF7F6FD2538D2E01C2148430A21FDF728
:107B8000EFFD2F38CBE040010A21FDF7E9FD323847
:107B9000C5E0252148430A21FDF7E2FD3938BEE062
:107BA0002D2148430A21FDF7DBFD4538B7E00000F1
:107BB0006865783A00000000253032782000000027
:107BC0000D0A0000AAFA0000881800006C656E20FB
:107BD0006572726F720D0A00786F725F6372633143
:107BE00036206572726F720D0A000000666C617358
:107BF0006820736574206F6B0D0A0000666C6173FA
:107C00006820706D74206572726F720D0A0000003A
:107C1000680640006770696F2070696E20696E7633
:107C2000616C69640D0A0000756172742070696E80
:107C30002825782920676574282564290D0A000005
:107C4000756172742070696E2825782920736574B7
:107C500028256429206F6B0D0A00000061646320F1
:107C60006368616E6E656C20696E76616C69640D27
:107C70000A00000048692072657365740D0A0000EF
:107C8000486920666C6173682067657400000000B5
:107C9000486920666C617368207365740000000099
:107CA0004869206770696F206765740048692067BC
:107CB00070696F2073657400486920616463206790
:107CC00065740000486920726573657400000000E7
:107CD000706D74206572726F720D0A00666C61734C
:107CE0006820646174613A00726561647920746F20
:107CF0002073657420666C6173680D0A00000000D3
:107D000048094000342148430A21FDF729FD4B383A
:107D100005E03E2148430A21FDF722FD5938A082A3
:107D200010BD10B5F94904000878A04214D0022C07
:107D300001D9022000E020000870C968002900D0A5
:107D40008847022C09D002220121342001F058FB7F
:107D50000021342001F0AAFB10BD022201213420B1
:107D600001F04EFB0121342001F0A0FB0D2004F0B6
:107D700001FB00221100042004F0B9FB10BD01003A
:107D8000E24810B5C088FF22D7325043FDF7E8FC27
:107D90000A214438FDF7E4FC04000100DC4801F04E
:107DA0005BFDDA494031432C01D3082004E0200078
:107DB0003C38072802D20720086010BD2000343864
:107DC000082801D20620F7E720002C38082801D225
:107DD0000520F1E720002338092801D20420EBE731
:107DE000200019380A2801D20320E5E720001338C3
:107DF000062801D20220DFE7132CDED20120DBE7C8
:107E0000F0B5C24C0022A16BE06B491C504187B019
:107E1000A16306220023511A8341E0630DD2A0889A
:107E200000280AD00106BB48090EFFF7C4FD002058
:107E3000A080B8488021FDF7E9FCE16BA06B0A2225
:107E4000002306F005FA1A4334D10520FFF7A0FD00
:107E500002F0F0FA0500E16BA06B0A22002306F0A5
:107E6000F7F90922002306F0F3F9AA495000B631C8
:107E70000D52A8480921B630FFF7F2FDE08001203D
:107E8000FFF786FD02F0D6FA0500E16BA06B0A222F
:107E9000002306F0DDF90922002306F0D9F99D49F7
:107EA0005000A4310D529B480921A430FFF7D8FDA2
:107EB000FFF765FF0520E9F762FF04281BD00120CA
:107EC000FFF72FFFFFF73CFEFFF7F4FD6778002F69
:107ED00016D0A069401C022FA06111D06069FF215B
:107EE000401C6061E069F531884206D2401CE061C7
:107EF000206A401C03E00220E2E70020E0612062EB
:107F00008248806801287DDA80487D2140304068C1
:107F1000C90002904843642105007C484069FDF790
:107F20001FFC06047B4C7948360C803401964030A7
:107F3000E68300883C212082029848433100FDF707
:107F40000FFC02047148120C2281006A03214904CB
:107F500048433C21000CE0800090AF20800050435B
:107F6000FDF7FEFBA0800098AF2189004843062161
:107F7000FDF7F6FB6080E800E121401B0901FDF7F9
:107F8000EFFBE060069028001B2148436249FDF7A3
:107F9000E7FB0504E120000131002D0C41432800DE
:107FA000E582FDF7DDFB20833C20464328003100BD
:107FB000FDF7D6FBA07655484F218269FF202500AA
:107FC0002600F5304901143D1036824202D94F484F
:107FD000012F2AD0514B4D489A424BD90022030021
:107FE0004270403382615A60426121801422310024
:107FF0006846FDF7F1FB2A00143207CA069B04F01D
:1080000023F900E05AE01E20208014223100684647
:10801000FDF7E2FB14350FCD04F016F9012004F052
:10802000A9F900221100022043E007000198142260
:10803000E083218031006846FDF7CEFB2A00143230
:1080400007CA069B04F000F91E202080142231008C
:108050006846FDF7C1FB14350FCD04F0F5F80D208F
:1080600004F088F900221100100004F040FA022008
:10807000787020E0002F1ED0218014223100684645
:10808000FDF7AAFB2800143007C8069B04F0DCF8B3
:108090001E202080142231006846FDF79DFB143518
:1080A0000FCD04F0D1F80D2004F064F90022110086
:1080B000042004F01CFA154864218160134881688B
:1080C000491E816007B0F0BD0EB501216846017000
:1080D0000721417064218170114981800021C18094
:1080E000104802900120C005416A022211434162FA
:1080F000416A0722120391434162416A021211430D
:108100004162684602F0D6F90EBD0000200640002C
:10811000387C0100C808400060EA000064190000D3
:1081200010270000017E010070B5E84C0D00E178D9
:108130000B2D15D0002912D10021A163E163A18884
:108140004A19802A0BD8002D09D0E14A53180100A2
:108150002A001800FDF740FBA0884019A08070BDE0
:108160000029E9D02900FFF78BFB0028E070F6D149
:10817000D8A001F071FB70BDF0B5D44E0024F36AB5
:10818000B26A844609E015066046075D2D0E0020A0
:10819000521C4341D448641C47558C42F3DBF362C4
:1081A000B262F0BDF0B58446C848FF27466B026B4B
:1081B000013733000025D7196E41856AC46A7F1BD9
:1081C000A64105D2FF22D24316122300AA187341FA
:1081D000BE481E00436302630B68DF17981877419F
:1081E000281ABC4100D2AB1AB84DBF4800240B601E
:1081F0000CE02A6B6B6B1606360E0027521C7B4177
:108200006B632A63835D62461355641C0A68A2424D
:10821000EFDCF0BD10B5802900DD80210906090ED4
:1082200004F0CCFE002010BD0EB56B4607C30C2138
:10823000684604F0C3FE002066E7002803D0A34987
:108240004862002070470020C0437047002803D0D8
:108250009E490861002070470020C043704700B568
:10826000FFF7A0FF002000BD984800787047002865
:1082700003D09649C860002070470020C043704773
:1082800010B50020FFF74DFD002010BD9648823844
:108290007047704710B504008C480078022808D158
:1082A000802900D98021200004F088FE200005F0FC
:1082B000FFFF10BD30B50300042901D9002030BDF7
:1082C0000020020006E08C1AE5009C5C083DAC40F2
:1082D0002043521C8A42F6DB30BD7CB5040001000D
:1082E00006226846FDF778FA002205236846865C78
:1082F0009D1A415D46558154521C032AF7DB01004B
:108300007A480622FDF768FA71482100032260319D
:108310000C38FDF761FA6E482100032264310838F9
:10832000FDF75AFA6A48210003226831001FFDF761
:1083300053FAE120400201F0D9FE6D4801F0B8FF88
:108340007CBD70B50C0009060500090EFFF73EFA6A
:108350002100280001F0A1FF70BD664802680121DC
:1083600089060A43026002690A43026182680A437D
:1083700082606148026A0A43026201688213114303
:1083800001607047514840304168491C41604038A5
:10839000016A491C01620121417000218161DCE711
:1083A00070B500221100322001F02AF8534801F084
:1083B0009AF8504C20680125AD06284320602069BA
:1083C00028432061022001F066FCA0682843A060D9
:1083D0004948016A2943016201688213114301601F
:1083E00070BD70B5E120400201F08BFA444801F005
:1083F0006DFB4448FFF721FF0120FFF792FC0120AD
:1084000001F01BF9FF20013000F0E9FD364B01259A
:10841000ED03883B88222900012000F070FF3248DC
:1084200080218838FDF7F2F92F481222823836A1D0
:10843000FDF7D2F900F014F800242802846120002E
:1084400000F06FFD2C480168294301600321416061
:10845000FFF7A6FF1D48403004604460002070BD57
:108460007FB52E49062203C9029003912C490020B2
:108470006B4600F044FF68460078FF2813D1684639
:108480004078FF280FD168468078FF280BD16846D6
:10849000C078FF2807D168460079FF2803D16846D5
:1084A0004079FF2802D0062269460BE00020052310
:1084B00002A90D5C1C1A0A5D0D550A54401C0328C4
:1084C000F7DB06220948FDF787F97FBD200640004B
:1084D000C808400048696C696E6B2041757468205B
:1084E0004F4B0D0A00000000BC0740002400400074
:1084F0009582010040658000400080008583010076
:10850000298101004383010048692D544553542DAE
:1085100031464646465858585858000080F00100E9
:10852000FC9F00001CB5FE49062200206B4600F0AF
:10853000E6FEFC4CF02020702921601CFDF766F956
:108540001522601CF8A1FDF747F9022120004030F8
:10855000C1711CBD10B54F246402F24B49222100A9
:10856000002000F0CCFEEF480078F0280DD0FFF797
:10857000D9FF012292022100002000F077FEE94B92
:1085800049222100002000F083FE10BD10B5EC4907
:108590000124640208002200183800F00BFBE848B0
:1085A000E84922000C3800F005FBFFF7D3FF10BDAF
:1085B000E54910B502200870E148183800F000FBCA
:1085C000DF480C3800F0FCFA10BD70B5DE4C002519
:1085D000A178002902D000280BD01CE0D8480C3824
:1085E00000F0F2FA0100D6480C3800F086FB6581F5
:1085F00070BDD3480C3800F0E7FA608121898842C9
:1086000000D361816289002A0BD0C649CC488039E9
:108610000C3800F00FFB6089002802D00120607048
:1086200070BD657070BD10B501F045FA10BDFAE778
:1086300010B54F240122640292022100002000F0B4
:1086400015FEB84B49222100002000F021FE10BD8C
:108650007047BD49087070470A000100B84810B55E
:10866000183800F0CAFA10BDB54810B50C3800F043
:10867000ABFA0100B2480C3800F03FFBB2480021D1
:1086800041700121817010BDAD4810B50C3800F06B
:108690009BFA0100AA480C3800F02FFBAA490020E1
:1086A0004870887010BD70B58CB0A9256C462570D7
:1086B0000B00607000210800A27005E01D5C261808
:1086C000401C0006000EF5709042F7D30020D31C2A
:1086D00004E0255C401C00066940000E9842F8D377
:1086E000A018C170111D200001F0E5F90CB070BD9B
:1086F000F8B5050094480621C078FDF731F80B0065
:10870000FDF7C4E80604101D27343E632978687815
:10871000AB780A181206120E9A4256D14143080647
:10872000000E0AE028786978AB7802004A43120606
:10873000120E9A4249D1401815E0E9782DE0687888
:10874000A9782B7842181206120E9A423DD148435E
:1087500009E06978A8782B780A0042431206120EC5
:108760009A4232D108180006000EE6E7A878E978A8
:108770002B7842181206120E9A4226D1484309E07D
:10878000A878E9782B7802004A431206120E9A4222
:108790001BD1401869780006000E884215D16BA0E5
:1087A00001F05AF8FDF706F80406240EFDF702F86A
:1087B0000606E878360E0621FCF7D2FF0B00FDF71F
:1087C00066E8060E141B232C323A65A001F044F82B
:1087D000684864220521E9F77FFB0020F8BD684660
:1087E0000470A119467081700BE020007043694647
:1087F0000C704E7088700DE0A119684601704470CD
:1088000086707443C47016E0200070436946087097
:108810004C708E70A019C8700DE0A01969460870E0
:108820002000704304E02000704369460870A019DE
:1088300048708C70CE70042208206946FFF733FF21
:108840004C4832220521801CE9F746FB0120F8BD87
:1088500070B50C0009288EB05ED01CDC3A4D0228A1
:108860002AD0032815D0052857D0082811D1012A6D
:1088700054D0042A0DD111002000FFF739FF012840
:1088800007D11E2028713B480A220521401CE9F728
:1088900023FB0EB070BD0A28FBD16278217836A088
:1088A00000F0DAFF2078FF2839D06178FF2936D030
:1088B0000A2251435043AAE09121267B09016846D0
:1088C0008182E17A0A2041436846C1822079617938
:1088D0000002401808906078A1780004090240184E
:1088E000E17840186421FCF73BFF010068464185B0
:1088F000607AA17A1422000241186846418609A9CB
:10890000FCF76AFF05A80FC803F09EFC687971099F
:108910008142BED069713BE066E04BE06CE072E002
:10892000FC9F0000280E4000585A585F54435F35A2
:108930002E302E305F323032303033333100000091
:10894000A8094000A80B40007A06400063686563F0
:108950006B5F6472697665206F6B0D0A0000000022
:10896000636865636B5F6472697665206661696CD4
:108970000D0A0000070F00007370656564207261C6
:108980006E67653A2025642C25640D0A00000000FE
:1089900070A000F061FF6879002809D0022800D09B
:1089A00077E70D2003F0E6FC0022110004200FE021
:1089B000012016E0087801280DD00228F0D169A026
:1089C00000F04AFF0F2003F0D5FC00221100022026
:1089D00003F08DFD5DE766A000F03EFF00206871AA
:1089E0000E2003F0C7FC54E708786946012208709E
:1089F0008E20FFF758FE4CE70878FF28EAD10A22BC
:108A00005E48052143E7AF210A22C900642003F034
:108A1000C4FC3EE7F3B50600007800252F00A92826
:108A200081B020D1701984780021E31C05E06A1818
:108A3000B25C491C09065740090E9942F7D329191F
:108A40008919C978B94204D1C11C40782200FFF7C6
:108A5000FFFE02996019001D884204D2241D0027E0
:108A600025062D0EDEE7FEBD30B5454DFFB028785A
:108A700082B0012813D1434800F0A6F804000ED0BC
:108A8000287801280BD13F482200694600F0D2F82F
:108A90002106090E6846FFF7BDFF022028707FB04F
:108AA00002B030BD364808B5427969460A7080790F
:108AB0000322487000208870A020FFF7F4FD2F48A3
:108AC00064220521801CE9F707FA002008BD10B5D3
:108AD000FCF770FE01062A48090EC1702AA000F0BA
:108AE000BBFE27490122C91C0820FFF7DCFD00203E
:108AF00010BD38B5224C29A0217900F0ADFE2179B6
:108B00001E4D6D1C1E2904D0F2290BD00A2918D045
:108B10001EE0FE206946087001221E20FFF7C3FDFB
:108B2000F22007E02F20694608700122F220FFF7AB
:108B3000BAFD0A2020710A2205212800E9F7CCF9A4
:108B400006E006206946087001220A20FFF7ABFD07
:108B5000002038BD6D6375207374617475733A2598
:108B6000640D0A006B65792073746F700D0A000044
:108B70006B65792073746172740D0A00070F000031
:108B80007A06400090094000636865636B5F647219
:108B90006976653A2025640D0A000000696E7175DA
:108BA0006972655F636D643A203078253032780DE4
:108BB0000A0000000160002182800181C1807047AD
:108BC00000210181C180704710B581880289C08869
:108BD0008A18101AFCF7DAFD0804000C10BD10B555
:108BE00084880189C0886118081A2100FCF7CEFD2D
:108BF000601A401E0004000C10BDF8B516000F00EE
:108C00000500FFF7ECFFB04212D300240CE0385D02
:108C10002A89296888542889A988401CFCF7A0FD66
:108C2000641C2404240C2981B442F0D30020F8BD34
:108C30000120F8BDF8B516000F000500FFF7C4FFCE
:108C4000B04212D300240CE0E9882868405C385513
:108C5000E888A988401CFCF783FD641C2404240CCC
:108C6000E980B442F0D30020F8BD0120F8BDF8B58A
:108C700016000F000500FFF7A7FFB04210D3002435
:108C80000AE0E888A9880019FCF76AFD2868405CBA
:108C90003855641C2404240CB442F2D30020F8BDDF
:108CA0000120F8BDF8B5050017000C000800FFF71B
:108CB0008BFFB8421FD32800FFF791FFB8421AD3A9
:108CC000002614E0E18820682A89405C29688854DD
:108CD000E088A188401CFCF743FDE1802889A98831
:108CE000401CFCF73DFD761C3604360C2981BE4243
:108CF000E8D30020F8BD0120F8BD70B50D000400D8
:108D0000FFF762FFA84207D3E088A1884019FCF76B
:108D100027FD0020E18070BD012070BD10B5818865
:108D200004000089401CFCF71BFDE088814201D152
:108D3000012010BD002010BDC1880089814201D1F1
:108D4000012070470020704710B5E9F7B5FA002000
:108D5000ECF7D2FDE9F776FB0020EFF7D2FEEFF754
:108D60005BFF10BD70B5FCF76EED0500FCF774ED10
:108D700004000120C00781210904C861C869C00F2F
:108D8000FCD1C8690A6A496A10180818FCF71BFD6B
:108D9000ECF75EFE0120ECF7AFFDE9F78DFB01205B
:108DA000EFF7AFFEE9F788FA002D01D1FCF75EED91
:108DB000002C01D1FCF762ED70BD4148006800282D
:108DC00001D000207047012070473D49012009680B
:108DD000002908D13A494969002904D13849896AEA
:108DE000002900D1002070470822C270042282703E
:108DF0000B22427000220270812000044268120E91
:108E0000CA704268120C8A704268120A4A7040683E
:108E10000870704770B5022681252D042C69002C3E
:108E20004DD0600703D50420A86100F03EF9E007AB
:108E300005D00120A86100F057F9F1F786FC200663
:108E400003D58020A861F1F780FC20070CD508200D
:108E5000A861A00702D50220A861B4430020EEF764
:108E6000DAFB184800F0E9FEE0050AD5FF200130E2
:108E7000A861A00702D50220A861B4430120EEF743
:108E8000CAFBA00703D50220A861EEF7DFFBA0050F
:108E900004D501204002A861F1F7C1FC600603D5AA
:108EA0004020A861EEF7B2FBE00603D51020A861D0
:108EB000EDF7C0F9A006B1D52020A861AEE770BDDE
:108EC000E4044000FF3F000010B50020F7F7ADFEBE
:108ED0000020F3F7BAFB0020FAF779FC0020FCF73A
:108EE00078FA10BD10B50120F7F79FFE0120F3F7C7
:108EF000ACFB0120FAF76BFC0120FCF76AFA10BD0D
:108F00000121C90781200004C161C169C90FFCD1D9
:108F1000006AFF21D531884201D30120704700202B
:108F2000704710B58F4C002020606060A060E0604A
:108F3000E8F75AFB6B222100D20010310020E8F73D
:108F40000DFC0122884992020120E8F707FC572214
:108F5000864912010220E8F701FC032284495202EB
:108F60000320E8F7FBFB834800F0D5FFFCF797FAF6
:108F7000FFF7AAFFFFF7E8FE0020F1F730FA012023
:108F80006073A0730620207303F09EFD10BD70B5C2
:108F9000FCF758EC0500FCF760EC0400E8F73AFB3E
:108FA000FCF78BFAFFF7DEFE0120F1F718FA7148A3
:108FB00000688047002D01D1FCF758EC002C01D14E
:108FC000FCF75CEC70BD10B5FFF70EFF10BD6548F7
:108FD00010B5807AC00701D1E8F7ABFB10BD70B5C2
:108FE0000500FCF730EC0600FCF736EC04005D48A9
:108FF00041892943002E418101D1FCF738EC002C36
:1090000001D1FCF73CEC70BDF8B55B480026009040
:10901000E8F720FB002844D0524C0126607B002852
:109020003FD0608900283CD1A07B002802D17D2060
:10903000C0010090FFF764FF0028FBD0217B684649
:10904000E8F7E5FF00282CD0FFF7B7FE00282AD06C
:10905000217B6846F1F7DDFC002822D000F077FD87
:10906000002820D04548C16B45484160009D0560FF
:109070004448854205D3FF225A3243A144A0FEF75B
:1090800057F9280014214843A17B401EEFF735FA19
:1090900001204002FFF7A3FF3648806A8047022084
:1090A00006433000F8BD0026FBE710B50120FFF7AE
:1090B00096FFEFF742FA3B4800F0BFFD10BD70B5D8
:1090C0000500FCF7C0EB0600FCF7C6EB04002548E2
:1090D0004189A943002E418101D1FCF7C8EB002C46
:1090E00001D1FCF7CCEB70BD1E4810B5807AC007EB
:1090F0000BD0EFF72FFA0220E8F7C8FA0120FFF7AC
:10910000DEFF01204002FFF7DAFF10BD7D2110B520
:109110004001C900FCF724FB10BD10B5FFF7F6FFB6
:109120001049086010BD0F48408970470D48407BCA
:1091300070470C48807B704710B50400114884428A
:1091400004D3194A10A119A0FEF7F2F8054A506895
:10915000011988088300C91A51606101091B0818A8
:1091600010BD7047740E4000E8114000F415400037
:10917000701B40001C01400080BB000040008000CC
:109180007C21400040420F00727769702E6300001E
:10919000736C6F745F636E74203C203130303030FC
:1091A00030300000FF3F0000870300006C706379DF
:1091B000636C6573203C203130303030303000003B
:1091C00083480521C9030160002101720121490280
:1091D000416001214172704770B57E4C0500A1606D
:1091E00000F0E0F800F0D8F861687C208143680165
:1091F0000843606000F0E1F800F0E5F80128FBD0DA
:10920000E46800F0D5F8200070BD70B5714C050021
:10921000A160E26000F0C6F800F0BEF861687C2052
:1092200081436801001D0843606000F0C6F800F04B
:10923000CAF80028FBD100F0BBF870BD70B5654CD2
:109240000500A16000F0AEF800F0A6F861687C208F
:109250008143680108300843606000F0AEF800F018
:10926000B2F80028FBD100F0A3F870BD70B506007D
:109270008D1801280BD84C0A640206E0210030004A
:10928000FFF7DCFFFF34FF340234AC42F6D370BD8D
:10929000F8B51C0015000E00070001282ED84C4917
:1092A000B8000858A84229D310E060782278E17805
:1092B00000020243A078090600040843024331007B
:1092C0003800FFF7A2FF241D2D1F761C042DECD2C1
:1092D000002D13D00022D243002009E0C100FF235B
:1092E0008B409A43235C8B40401C1A430006000EBF
:1092F000A842F3D331003800FFF787FFF8BDF8B577
:10930000070000200E00C04331490090B800085803
:109310001D001400A04224D3012F22D80CE03100FC
:109320003800FFF759FF0090042228006946FCF737
:1093300053FA241F2D1D761C042CF0D2002C10D0C3
:1093400031003800FFF748FF0090002007E0009947
:10935000C200D140401C0006000E29706D1CA042C6
:10936000F5D3F8BD70B502001B4800290FD01B4E85
:1093700014780023521C45086040C007800F305A03
:1093800064085B1C6840082BF5D3491EF0D170BD02
:1093900070470020704770470E48A5210161C32126
:1093A000416170470E490B4801600E4901607047EA
:1093B00008480021016001607047064841680122A9
:1093C00011434160704703484068C007C00F7047B1
:1093D0008821400000308000FFFF0000860640002A
:1093E000A958000058A900000020044902007D236C
:1093F000DB00401C04C19842FBDB70470040810049
:10940000F7B502099700724AD25916689646704A13
:109410001432D25915680207120F012394461C001A
:1094200008329440624693401A04012914D000295E
:1094300016D0032917D09E43344311002943050752
:109440002D0F0120A840029B0006002B10D0012BFD
:1094500012D0022B15D112E03343A3431C0004E0C9
:1094600033431C43E9E733431C4329009143E6E7B8
:1094700022438243140004E09443044301E09443F4
:1094800084437046046052481430C0590160FEBDE8
:109490000109020788004E49120F1431085800686C
:1094A0000004000ED040C007C00F704702099300AF
:1094B000474A10B51432D458226800070123000F20
:1094C0008340002901D01A4300E09A43226010BD76
:1094D000704710B504000121FFF7E8FF00212000CC
:1094E000FFF7E4FF10BD002802D03949091F0860CA
:1094F0007047384810B500218160491E0161364827
:10950000016882139143016034A000F0A5F930484E
:10951000001F0068002800D0804710BD00B5002261
:1095200002212020FFF76CFF002202212020FFF7FC
:1095300067FF002202212020FFF762FF00220221A4
:109540002020FFF75DFF002202212020FFF758FFB7
:1095500000BD20484038026821490A6082684A609C
:1095600002698A608269CA60026A0A6142681431CB
:109570000A60C2684A6042698A60C269CA60426A17
:109580000A611849016041608160C1600161416107
:109590008161C16101624162704711490D480A68E9
:1095A000403802604A6882608A680261CA688261E3
:1095B000096901620A4914310A6842604A68C26056
:1095C0008A684261CA68C26109694162704770472E
:1095D000900640004065800040008000310D0A0088
:1095E00094214000FFFF00004C49012008707047A3
:1095F0004B4881694B4A11438161C168FF221204C3
:109600009143C160C168152212041143C160464AEA
:1096100041048A63C26902239A43C26100224A60FC
:10962000FF22B2320A604A6B40231A434A63410662
:10963000C16370473D48407870473C494870704767
:10964000374800210160416039493A4A516200219E
:10965000C94301625A218162416A0904090C4162CD
:10966000416A354A114341620A2000F066FCFEE778
:109670002E4810B5012101702948C26980231A4380
:10968000C261FF23B13342041360C3690224234340
:10969000C361C3690B43C361C36908242343C36126
:1096A000C36904242343C361516010BD1F4801787E
:1096B00001290AD10021017019498020C861FF21C8
:1096C000B231000401601849816370470120C1056F
:1096D000486070470120C005806B800701D50120DC
:1096E0007047002070470E49CA6902239A43CA6135
:1096F00000234904012809D00B4A623202280AD00B
:10970000032802D1042048600A6070474B60FF20A4
:10971000B230086070474B60F6E70000320040004E
:10972000400080000010001051050000B806400005
:10973000083C207000148000000032347047284834
:1097400041688908890041604168032211434160F2
:109750000168021211430160704722482049886065
:10976000704770B51E4EB568FFF7A0FF812000045A
:10977000016B0904C90F12D0F26B1B498A604B6858
:109780000968D21AFF23F5335A43184B891E5943EF
:109790008A4204D2016B1022914311430163A8064F
:1097A00003D52020044300F09DF9A80504D501202D
:1097B00040020443FFF79DFEE80504D5FF20013079
:1097C000044300F02EFEB46070BD70B5044DAC686B
:1097D000FFF76CFF200401D5FFF71CFBAC6070BDE8
:1097E00040008000FFFF00007C214000710200006B
:1097F00070470949886070470748406870470649C4
:1098000008607047044810B5C0680006000E02D01A
:109810000220E7F73BFF10BD00E00010CF4ACE4822
:109820005178405C491C51707047CD48C0680006B3
:10983000000E7047010010B5C94A002007E0946887
:10984000E40204D5D360401C0006000E491C0B78CE
:10985000002BF4D110BDEDE70FB410B5BE4802994E
:10986000543003AA04F084FF0400BB485430FFF7CF
:10987000E1FF402C02D9BBA0FFF7DCFF200010BCA9
:1098800008BC04B018470020704710B5040086B02B
:109890001422B8A16846FBF79FFF22096846AF492A
:1098A000825C891C0A702207120F805C48700020BD
:1098B0008870080006B010BD70B50500B2A0FFF7B3
:1098C000B9FF0424E00029000838C1400806000E52
:1098D000FFF7DBFFFFF7AEFF641E2406240EF1D175
:1098E000AAA0FFF7A7FF70BD7D2101B5C90003E065
:1098F0000220401C8842FCD30098421E0092F7D2FE
:1099000008BD012110B5C905CA6852085200CA60D5
:109910004B214902421A884220D00CDC9C49401A53
:1099200016D0401A16D04900401A15D04900884276
:109930000CD1984819E04B200002101A11D0E121F7
:109940000902401A02D09449C8420DD089200CE087
:1099500092480AE0924808E0924806E0FF20A130D1
:1099600003E0FF20163000E0102001027C481B318C
:1099700001608D494160C2210161002181618B4AF2
:10998000C2618B4802688B4B1A4002600368032255
:1099900012041343036003681412234303604368F3
:1099A000934343606C4840308160C16082480168E5
:1099B0002022114301608148E7F772FC10BD704717
:1099C00010B5674800E0C16881688902C90FFAD103
:1099D00061484021FBF71AFF10BD01207047604825
:1099E00081690122120491431143816181688903D5
:1099F000C90FFBD0704770B51D0014000E00002881
:109A000005D1FF22A8326EA16FA0FDF791FC002EB8
:109A100005D1FF22A9326AA16FA0FDF789FC002CB5
:109A200005D1FF22AA3266A16EA0FDF781FC4A484B
:109A30004030C560846070BDF8B51E0014000F0092
:109A4000050005D1FF22B6325DA15FA0FDF770FCD5
:109A5000002F05D1FF22B73259A15FA0FDF768FCA6
:109A6000002C05D1FF22B83255A15EA0FDF760FCA5
:109A700039483A06403050C0120E3949083805E0DE
:109A80008B68DB0202D52B78CB606D1C1300521E55
:109A90001206120E002BF3D1002C04D0002101601D
:109AA00041603000A047F8BD2D498A689203D20F6B
:109AB000FBD0C860704710B50C00030003E01878B5
:109AC0005B1CFFF7F1FF641EF9D210BD002801D026
:109AD0002249C86070472148C168002901D000218F
:109AE000C1607047F8B51E4C666960691B4D800700
:109AF000C00F0027002807D160694006C00F03D1BE
:109B000060690006C00F1AD0134BA06880020BD505
:109B1000E068010AA8681A18401CA8601170A868BB
:109B20004028F2D1AF60F0E701202870EA68002AEF
:109B300004D0A86801060848090E9047AF60616923
:109B40003006000E090A090201436161F8BD0448AC
:109B500080688003C00F7047BC214000BC064000F5
:109B600000638000627566662066756C6C200D0A65
:109B70000000000030313233343536373839414255
:109B80004344454600000000307800000D0A000004
:109B9000600900004103000000B2F3FF0A1A000050
:109BA000050D000082060000011000000100700099
:109BB00000658000FCFFFCFF400080005998010018
:109BC000756172742E630000627566707472202174
:109BD0003D204E554C4C000073697A6520213D2094
:109BE0003000000063616C6C6261636B20213D207A
:109BF0004E554C4C000000000120C105C8611648BC
:109C00002D2149040160A5210904016013490020A8
:109C10004870704700220121C905CA610E490860D9
:109C20002D235B04C3180B60A5231B04C018086018
:109C30000A4801210270417070470849497801299A
:109C400008D12D214904421803490A60A5221204B3
:109C5000801808607047000000608000CC0640005B
:109C600070470020704781210904086B07221043C8
:109C70000863704740087638000600167047006891
:109C8000704701607047CF494A6B52005208C007C5
:109C900002434A63704710B5CB4C002305E0220015
:109CA0000221491C9142FCDB5B1C8342F7DB10BDA7
:109CB000F8B5C64C206901210905084320612069D7
:109CC0000F21C9010843206121690120400481431B
:109CD00021612069C009C001206160690121090377
:109CE000084360610A20FFF7D6FF606901277F0300
:109CF000384360613220FFF7CEFFB54D4021E86860
:109D0000B24E8843803EE860F0600A20FFF7C3FF50
:109D1000E86880210843E860F0600A20FFF7BBFF95
:109D20006069F900084360616420FFF7B4FFA74849
:109D300040388068C000C10C7D204002FBF710FD58
:109D4000C005C00DE113884200D908009F4E40367F
:109D50003168A04A1140316031680002014331602E
:109D60006420FFF798FF616901200003814361616E
:109D70006069B8436061E8688021944F8843803F00
:109D8000E860F8600A20FFF786FFE8684021084392
:109D9000E860F86061690120000481436161206925
:109DA0000121490408432061216901200005814304
:109DB000216130680121084330606420FFF76BFFA8
:109DC000C820FFF768FF2069286160696861206822
:109DD000A861E068E861F06A2862F8BD70B57B4967
:109DE0007D4D80390D607D4A4A607D4B8B607D4C96
:109DF000CC607D4808617D4848617D4888617D4828
:109E0000C8617D4808627D4848627D4888627D4817
:109E1000C8627D480863002048638863C8636C4952
:109E200020C11CC16949794A40390A60784A4A60B0
:109E30000F2292028A60C8600122D2040A6148613E
:109E40008861C861734A0A6248628862C8620863AE
:109E500048638863C863704A5C490A604B225206B3
:109E60004A600F22D2068A601A04CA606B4A0A61ED
:109E7000012252054A616A4A8A616A4ACA616A4A8B
:109E80000A626A4A4A626A4A8A628122D200CA62C5
:109E9000684A0A63684A4A638863C8634B49674AE9
:109EA00040310A6048608860C86008614861886124
:109EB000C861086248622522D2038A62604ACA6287
:109EC000604A0A6348638863C86340480121090601
:109ED000803001605C4941605C4981605C49C160DF
:109EE0005C4901615C4941615C4981615C49C161D6
:109EF0005C4901625C4941625C4981625C49C162C2
:109F00005C4901635C4941635C4981634916C163F3
:109F1000FFF7CEFE70BD5A490F22016259494162D6
:109F2000594941612C210A545849816258490160BC
:109F3000584941605849C16150E7002104E00222BC
:109F4000521C0A2AFCDB491C8142F8DB70470021C5
:109F500004E00222521C322AFCDB491C8142F8DB5D
:109F600070471A484D49803801634D4901631420F8
:109F700091E6C901154A01434A48803A10611348E5
:109F8000026901231B059A43026102690F23DB0169
:109F90009A43026101614169090D09054161416905
:109FA0000322120311434161FEE708490861486931
:109FB000000D0005486148690322120310434861FF
:109FC000FEE7000040008100BC0C0000801480000F
:109FD00050224000FF00FEFF1032B0C400C2958244
:109FE00000A0222F62A2622FCB5E915F1352204805
:109FF000000AFAE4C43F00AA0580C007483C20706C
:10A000006B78039C23BF670E08D0008035340800AE
:10A0100020008116FF010000D6BE898E82001E003E
:10A020000505841000C9080010100101004E103C05
:10A030004D38100E4D406A0046C42C080100011036
:10A0400048103436001CFF01020405070A0C0F12E9
:10A05000161A1E22262B30353A40454B51575D6368
:10A060006970767C83898F969CA2A8AEB4BABFC56E
:10A07000CACFD4D9DDE1E5E9EDF0F3F5F8FAFBFD5F
:10A080007F9C0100839C0100639C0100679C010090
:10A09000619C0100879C0100759C010008500080B4
:10A0A00008900080CB56917FA54AA4485178405C27
:10A0B000491C51707047A348C0680006000E7047E5
:10A0C000010010B59F4A002007E09468E40204D51F
:10A0D000D360401C0006000E491C0B78002BF4D105
:10A0E00010BDEDE70020704700207047012110B53A
:10A0F000C905CA6852085200CA604B214902421A77
:10A10000884220D00CDC9049401A16D0401A16D054
:10A110004900401A15D0490088420CD18B4819E0FB
:10A120004B200002101A11D0E1210902401A02D07E
:10A130008749C8420DD089200CE086480AE086484D
:10A1400008E0864806E0FF20A13003E0FF2016303B
:10A1500000E0102001027B481B3101608049416012
:10A16000C2210161002181617E4AC2617E4882680C
:10A170007E4B1A40826083680322920513438360FA
:10A180008368141223438360C3689343C3606B489E
:10A1900040308160C16076480168C211114301609E
:10A1A00010BD704710B5674800E0C168816889023A
:10A1B000C90FFAD161484021FBF728FB10BD0120EF
:10A1C0007047604881690122120491431143816103
:10A1D00081688903C90FFBD0704770B51D0014005A
:10A1E0000E00002805D1FF22843262A163A0FDF792
:10A1F0009FF8002E05D1FF2285325EA163A0FDF7F6
:10A2000097F8002C05D1FF2286325AA162A0FDF7F3
:10A210008FF84A484030C560846070BDF8B51E00B4
:10A2200014000F00050005D1FF22923251A153A066
:10A23000FDF77EF8002F05D1FF2293324DA153A0E8
:10A24000FDF776F8002C05D1FF22943249A152A0E7
:10A25000FDF76EF839483A06403050C0120E3949C1
:10A26000083805E08B68DB0202D52B78CB606D1CCB
:10A270001300521E1206120E002BF3D1002C04D034
:10A280000021016041603000A047F8BD2D498A6877
:10A290009203D20FFBD0C860704710B50C000300CA
:10A2A00003E018785B1CFFF7F1FF641EF9D210BDC4
:10A2B000002801D022498860704721488168002920
:10A2C00001D0002181607047F8B51E4C6669606955
:10A2D0001B4D8007C00F0027002807D1606940068A
:10A2E000C00F03D160690006C00F0FD0134BA068E8
:10A2F00080020BD5E068010A68681A18401C686083
:10A30000117068684028F2D16F60F0E70120287072
:10A31000AA68002A04D0686801060848090E904718
:10A320006F6061693006000E090A0902014361612C
:10A33000F8BD044880688003C00F70477422400055
:10A34000D0064000006A8000600900004103000060
:10A3500000B2F3FF0A1A0000050D0000820600009B
:10A360000110020001007000006580003FFF3FFF08
:10A370004000800075617274322E630062756670F1
:10A38000747220213D204E554C4C000073697A6553
:10A3900020213D203000000063616C6C6261636BC2
:10A3A00020213D204E554C4C0000000070B50400AB
:10A3B0000D000120C00581684908490081600A211B
:10A3C00081602000303000060222000E1100FFF7ED
:10A3D00017F8E0002843802108432C4908602C4AE4
:10A3E0001043086008600868CA131043086070BD15
:10A3F00030300006002210B5000E1100FFF700F803
:10A4000022480168C908C90001600120C0058168AF
:10A410000122114381601F480168C213914301600A
:10A4200010BD1A480168C213114301601A49012086
:10A4300048807047F8B5184E1648002575800168A9
:10A44000C21311430160114C2068052108432060AC
:10A45000FF272D376D1C2D042D0CBD4203D90FA0F5
:10A46000FFF7FAF905E00A20FFF771FD7088002870
:10A47000F0D07088012803D160688005000E30801C
:10A480002068C008C00020603088F8BD00678000E8
:10A490000006120040008000DC064000675F616437
:10A4A000635F76616C75655F74696D656F75740D5A
:10A4B0000A00000030B5002861D00378052B5ED873
:10A4C000C188828891425AD8417809078A0F0121B0
:10A4D000012A05D0574A94680D009D40AC43946012
:10A4E0000122D205536A04780D006400A540AB43F5
:10A4F00053624378DB0608D5546A03780D005B008D
:10A500005B1C9D402C43546207E0536A04780D00A5
:10A510006400641CA540AB435362C2888388120464
:10A52000D3180278D400444AA418A36013680478AE
:10A530000F25A400A540AB4345782D072D0FA5405E
:10A540002B43136042783D4B94073D4A0BD5057869
:10A550008468AD005C5113680078052800D10D2097
:10A5600081400B430AE005780024AD005C5113687C
:10A570000078052800D10D2081408B43136030BD49
:10A58000052806D82C490A68830001209840024318
:10A590000A60704705280AD8820001200100914016
:10A5A000521C90400143244802688A43026070476D
:10A5B000052807D820490A6880000123401C8340F1
:10A5C0001A430A607047052807D81B490A688000AB
:10A5D0000123401C83409A430A607047052801D933
:10A5E000002070471449C0004018C0680004000CE7
:10A5F0007047052803D8114A002180001150704788
:10A60000F8B50D4E7568002401273800A040284297
:10A6100007D00A48A1004158002902D02006000EA8
:10A620008847641C052CF0DB756070682840800644
:10A63000FAD1F8BD0065800000618000C8224000AA
:10A6400040008000FFB505008BB01498002700780B
:10A65000401E012876D801212420E7F719F90400CB
:10A660002421FBF7D3F8149800260078E07761E006
:10A670000720694608761498A17F80190700059085
:10A6800040780822B0400143A1771499F0004118A6
:10A690000019001D091DFBF79FF87878012805D1E6
:10A6A0006946087E0821084369460876E07F01284C
:10A6B00005D96946087E10210843694608760C983A
:10A6C00009A90288700007900A520E991E221140B3
:10A6D000AB8A039109A94018C34F002269468CC177
:10A6E000C249052306AAF5F73AFF07001CD1059ACF
:10A6F0000799527809A8415A012A01D0012200E0A5
:10A700000022891A0C9A491D11800599497801295E
:10A710000AD107990923405A5B020022801C0004D9
:10A72000000C1900F6F7EEF90720761C360669468C
:10A73000360E087614980078B04205D9002F97D0CD
:10A7400004E0FFE7812706E0002F07D0002C02D0AD
:10A750002000E7F702F938000FB0F0BD68462C6121
:10A76000808C0C99088020830E98C00702D00121AC
:10A77000C90300E000210D9801432180A88A00212F
:10A7800060802420E8820120E88199481C34AC6074
:10A790006860A88AE7F7BEFADDE770B505690400CE
:10A7A0006869002801D0E7F7D8F800202061280068
:10A7B000E7F7D3F870BD0069002240184277704770
:10A7C00000690022401842777047F8B505000C0078
:10A7D000242000F0C9FEC37F00210A00AB422FD91C
:10A7E000018B05270BE0867FD640F607F617BE1BC8
:10A7F0007118491E0904521C090C1206120EAA42B5
:10A80000F1D3032C01D2081916E0032C02D0042C3A
:10A8100008D014E0807FD040C00710D0C91C0904C4
:10A82000090C0DE0012B0AD9807FD040C007C0176A
:10A830000422101A4018401E0104090C00E00021F7
:10A840000800F8BD70B50C0015000600002100F0EE
:10A85000A1FE02002102C120092300010831E7F70F
:10A86000FFF804001220207002212800FFF7ADFF3E
:10A87000A0800120E0807019807E20722000E7F720
:10A8800008F970BD584828307047F8B50400160024
:10A890000D00242000F068FE038B010080200022C0
:10A8A00021E09F1CBC4201D8E01A15E08B7F3F04D9
:10A8B0003F0CD340DB0706D07F1C3F043F0CBC425B
:10A8C00001D1032008E06346012B08D97F1C3F0417
:10A8D0003F0CBC4203D1042030700020F8BD7F1C27
:10A8E0003B041B0C521C2A70CF7F1206120EBA4278
:10A8F000BC46F3D29C42D4D2F8BDF8B5242000F077
:10A9000033FE0400FF2000906069092281889202D2
:10A91000914220D1027B0100009202000E32964645
:10A9200022001A32D71C951D0C3194460FE00E7888
:10A9300001239340F65D1E4207D07346D65C634602
:10A94000D35C9E4201D0097818E0521C2A702A7804
:10A95000022AECD31EE0274A91421BD121000200BB
:10A960001D310C32CD1C8C4611E017786346CE5C4D
:10A970000123BB401E4208D03A06120E2000FFF70A
:10A9800061FF2878401C2870F8BD491C297029787F
:10A990000029EAD0818809229202002591420AD139
:10A9A000C288018913480223401EE7F759F800992D
:10A9B000017045700AE00F4A914209D1C2880189AD
:10A9C0000C480123401CE7F74BF80570E7F761F8E6
:10A9D0006069E6F7C2FF00212000656100F0DAFD42
:10A9E0000021E7F797F9F8BD88F001000F18000083
:10A9F000F0F0010002240000FFB581B003981F00B1
:10AA00000C000226E7F7BBF900282FD1242000F024
:10AA1000ABFD05002078012804D8F0F709FA9C491D
:10AA2000884212D19B48039A02233900E7F718F8AD
:10AA3000217801702178012901D9402100E0892184
:10AA40004170E7F726F8002610E001260398310050
:10AA5000E7F760F96178227828001D3011540C3C2A
:10AA60006C61002020352870FFF747FF300005B0EB
:10AA7000F0BDFFB581B003981F000D000226E7F777
:10AA80007EF9002826D1242000F06EFD04002978EC
:10AA9000C07F814212D2687864280FD822001A320F
:10AAA0008854012603983100E7F734F90C3D6561BD
:10AAB000002020342070FFF720FF0BE07548039A38
:10AAC00001233900801CE6F7CBFF81210170E6F7F6
:10AAD000E0FF00263000CAE7FFB583B000256846D6
:10AAE00005710570088817000E006A4601A9FFF776
:10AAF000CCFE04006848069906233A00E6F7B0FF4A
:10AB00003188002C018005D169460978032907D0D6
:10AB1000032445800471E6F7BCFF002007B0F0BDB8
:10AB200002214180F6E7FFB50F0083B0002069469F
:10AB300008700871069801AA040A3888FFF7A5FE74
:10AB4000060011D1242000F00FFDF9790500B87935
:10AB50000902084369460979032904D10121002823
:10AB600010D0012816D080264B48059A0699042358
:10AB7000801EE6F775FF398801808670E6F789FF49
:10AB80000020CBE76B461B782819427F99408A4307
:10AB9000427706E06B461B782A19507F994008439C
:10ABA00050772100280000F0FDFC01003948059A8B
:10ABB0000223C01CE6F754FF29190470497F417035
:10ABC000E6F767FFD0E7FFB583B00020694608705D
:10ABD0000871180A029004981C00008801AAFFF767
:10ABE00054FE06000025242000F0BEFC0700002EC5
:10ABF00008D168460079022814D0032814D004280C
:10AC000014D080262448059AAB1D2100001FE6F7CA
:10AC100027FF04000498002E01882180267165809A
:10AC200006D028E00125EDE70225EBE70725E9E757
:10AC300068460079022804D0032808D0042812D0DE
:10AC400019E0684600783818807E607113E0029839
:10AC5000694609783818407FC840C107C90F61713B
:10AC6000090AA17107E068460078C000C119601D9B
:10AC7000091D00F0D5FC2000E6F70BFF00204DE792
:10AC800010B50878122801D1FFF737FE002010BD5B
:10AC9000FFFF000001240000180C000030B5030085
:10ACA0000120002103241A00CA40D20704D04D001D
:10ACB00022006D1CAA401043491C0906090E0929EF
:10ACC000F1D330BDFFB585B00E9F040038881D005C
:10ACD000FFF7E4FF049028001E210840A18A4C4A97
:10ACE000002301910093029203904A49069813238E
:10ACF00004AAF5F734FC060022D101212020E6F752
:10AD0000C7FD206106990988018339884183E907D5
:10AD100001D00121C903079A11430180A18A418012
:10AD20001421E1820121E18101001E31A1603A4933
:10AD3000001D6160E7F7DAF9A08A0021E6F7EAFF73
:10AD4000300009B0F0BD70B50469050060680028E6
:10AD500005D0201DE7F70EFAE6F7FFFDF6E7002025
:10AD600028612000E6F7F9FD70BD7047704728485C
:10AD70009830704730B50400228B648B0920521C38
:10AD800013041B0C00222500D540ED0707D05D1CE5
:10AD90008D4201D1100030BD9B1C1B041B0C521CAA
:10ADA0001206120E092AEED330BD10B50300008B37
:10ADB0005B8B401C0004000C00221C00D440E40704
:10ADC00008D0914203D1401C0004000C07E0801C15
:10ADD0000004000C521C12061216092AEDDB092A87
:10ADE00000D1002010BD02000020802901D98D2053
:10ADF0007047062A06D0072A07D0082AF8D1072963
:10AE0000F5D170470829F2D170470629EFD3704772
:10AE1000F8F001000A180000B8F10100FFB50C00BD
:10AE2000142081B000F0A0FB21780700092931D25D
:10AE3000FFF7BBFF00282BD061782078FFF7D3FF06
:10AE4000060028D17D680DE028792178884208D154
:10AE500000222900381DE7F797F92800E6F77DFD65
:10AE600002E02D68002DEFD1607801210830E6F76F
:10AE70000FFD05002078A11C287160786871627848
:10AE8000A81DFAF7A9FC2900381DE7F733F902E0FD
:10AE9000822600E081265348039A04990223E6F7AC
:10AEA000DFFD217801704670E6F7F3FD002005B064
:10AEB000F0BDFFB5002081B0009003980E00E6F7CA
:10AEC0005EFF002802D001284CD04DE0142000F095
:10AED0004BFB31880700FFF74DFF05004248092D65
:10AEE00036D27C6803E02179A94203D02468002C83
:10AEF000F9D117E0002C15D06379039A04999B1DB2
:10AF0000E6F7AEFD05003088A11D288000202871DD
:10AF1000607968806279681DFAF75EFC2800E6F7C0
:10AF2000B8FD21E03D770498010A3800797700F0F8
:10AF300039FB01002B48039A0123401CE6F790FDE2
:10AF40000570E6F7A6FD03980121E6F7E3FE0BE0A6
:10AF5000039A04990623E6F783FD31880180802156
:10AF60000171DCE7022000900098A0E7F8B5170017
:10AF70000D001000E6F703FF012831D1142000F086
:10AF8000F3FA017F0400FFF710FF217F2A78060003
:10AF90001548914214D1617F6B783A00090208315B
:10AFA0009B1DE6F75DFD0400068000202071687897
:10AFB000A91C60806A78601DFAF70EFC200009E089
:10AFC000617F06233A0009020831E6F749FD802136
:10AFD00006800171E6F75DFD00213800E6F79AFE74
:10AFE0000020F8BD01140000140C0000FFB505009E
:10AFF000FF2087B0109F1E0001211130E6F748FCAA
:10B00000FF2104001131FAF701FC3F216846017568
:10B01000E01DF930027B7B781A43027378780128AF
:10B0200001D1684601750898694600885E4A002388
:10B03000088230001E210840A98A009302920191E3
:10B0400003905A49062305AA04A8F5F788FA0028B0
:10B05000009007D0002C02D02000E6F77EFC00987C
:10B060000BB0F0BD7878012809D16846008A092123
:10B070004902001D0004000C0022F5F743FD68465C
:10B080002C61008A089908802081F00701D00120F6
:10B09000C003099908432080A88A002160804520C8
:10B0A000E8820120FF34E88141480B34AC606860DD
:10B0B000A88AE6F72FFED2E770B505690400686834
:10B0C000002801D0E6F749FC002020612800E6F7BF
:10B0D00044FC70BD006900224018FF300130C2728C
:10B0E0007047006900224018FF300130C27270477B
:10B0F00010B50400452000F037FA0189052C03D271
:10B1000008190004000C10BD052C08D1FF300130D7
:10B11000007BC00703D0491D0804000C10BD0020AF
:10B1200010BD70B50D00002100F034FA6B780200FC
:10B13000C120082100010833E6F792FC0400122028
:10B1400020700420FFF7D4FFA0806878A91CE0805D
:10B1500020006A780830FAF73FFB2000E6F799FCF8
:10B1600070BD11483030704770B504000D004520A7
:10B1700000F0FAF902898021131D9C4202D8A11A1D
:10B1800029700021FF300130007B1A04120CC00727
:10B1900007D0521C1004000C844202D1052000216B
:10B1A0002870080070BD0000C0F10100F0FF000031
:10B1B00028F2010070B515000E0002241000E6F719
:10B1C000DEFD002810D1452000F0CEF90400012159
:10B1D0002800E6F79FFD31002000FFF7A2FF0021C5
:10B1E0002800E6F797FD0024200070BDFFB581B070
:10B1F00000266846067008880D0017006946FFF7AC
:10B20000B3FF04007348049906233A00E6F728FCCC
:10B210002988002C018005D169460978052907D0C5
:10B22000032446800471E6F734FC002005B0F0BD2D
:10B2300002214180F6E7FFB50C0081B0002069468D
:10B2400008700498050A2088FFF78EFF070013D1C5
:10B25000452000F089F9E1790600A0790902084348
:10B2600069460978052902D0022932D003E0002876
:10B2700028D001280ED080275648039A0499042329
:10B28000801EE6F7EDFB218801808770E6F701FC60
:10B290000020CBE77019FF300130C17A0122114341
:10B2A000C1722900300000F07DF901004A48039A7C
:10B2B0000223E6F7D5FB7119FF3101310570C97A18
:10B2C00041701CE07019FF300130C17A4908490013
:10B2D000E6E72900300000F065F901003E48039AD6
:10B2E0008223401CE6F7BCFBA2880600A11DFAF7EA
:10B2F00073FA300080304570217901703000E6F734
:10B30000C8FBB9E7FFB50F0083B00020694608709D
:10B310000698000A01903888FFF726FF05000024F0
:10B32000452000F021F90600002D06D1684600787E
:10B33000042810D0052810D080252648059A0699A3
:10B34000A31D001FE6F78CFB3988002D01800571D5
:10B35000448004D017E08024EFE70224EDE769463B
:10B360000978042902D0052903D00CE0B17A417193
:10B3700009E001997118FF310131C97ACA07D20F6A
:10B380004271120A8271E6F784FB002007B0F0BD1B
:10B3900070B5087815000C00122811D11E0A45203E
:10B3A00000F0E2F8310000F0FDF801000A48012346
:10B3B0002A00401EE6F754FB61780170E6F769FB4E
:10B3C0002800E6F7DCFC410849002800E6F7A2FC6B
:10B3D000002070BD180C00000345000001000906A4
:10B3E0000020090E10B5452911D006DC142911D012
:10B3F000242901D1FFF746FA10BD472904D04D2971
:10B40000FAD100F0F3FE10BD00F051FC10BDFFF7C3
:10B41000A8FE10BDFFF7ABFC10BDF8B57F4E0025B0
:10B42000FF27002819D00024182060438719F88AC4
:10B43000FFF7D4FF002802D0416838008847FF207A
:10B44000F8827D60BD60FD81387DE6F7ACFC641C50
:10B450002406240E0A2CE7D3F8BD0024200018216E
:10B460004843220081190B320D618A82CF824D60E0
:10B470008D60CD818D813550087DE6F70FFC641C11
:10B480002406240E0A2CE9D3F8BDF3B50500408844
:10B49000002681B0FFF7A2FF01000AD06A885F4F43
:10B4A000002018234343DB19DB8A934203D1422651
:10B4B0002AE0402628E0401C0006000E0A28F0D3AF
:10B4C000002418206043C019C08AFF2807D0641CDC
:10B4D0002406240E0A2CF4D30A2C14D014E02800DD
:10B4E00008300090182060430E68C01907006B7880
:10B4F000AA88A91DB0470600EED16888F882B98AEB
:10B5000002980180E8E74B263000FEBDF8B5434EB7
:10B5100007000024182060438519E88AFFF75EFFC2
:10B52000002803D08268390028009047641C240654
:10B53000240E0A2CEED3F8BDF3B5384E0F000024CC
:10B5400081B0182060438519E88AFFF747FF00287B
:10B5500004D0C3683A00019928009847641C240667
:10B56000240E0A2CEDD3FEBD03002C4A002010B59A
:10B57000010018244C43A418E48A9C4204D11820EA
:10B5800041438818006910BD491C0906090E0A29A3
:10B59000EFD310BD42885004400CD20B01D00902F9
:10B5A0000843704702885004400CD20B01D00902B6
:10B5B0000843704730B5020A0406184BFF21240ED9
:10B5C000002018254543ED18AD8AA54204D1182165
:10B5D0004843C018C18A04E0401C0006000E0A2837
:10B5E000EFD31002084330BD30B5020A04060B4BFE
:10B5F000FF21240E002018254543ED18ED8AA542B1
:10B6000004D118214843C018818A04E0401C000678
:10B61000000E0A28EFD31002084330BDDC224000A0
:10B620000A7902704A7942700B8883701B0AC370D2
:10B630008A79027149884171090A817170470A88C3
:10B640000270120A42708A788270CA78C2700A79CF
:10B6500002714A7942718979817107207047437874
:10B6600002781B021A430A8082788A70C278CA70F4
:10B6700002790A7142794A7180798871072070478E
:10B68000FFB505000020C04385B00E0004901F00E8
:10B6900001214420E6F7FCF80400286138001E214F
:10B6A0000840A98AF64A0023009302920191039070
:10B6B000F4490923300004AAF5F767F80100009067
:10B6C000F1A0FEF7C9F83088208130880930308039
:10B6D0000098002830D10E984078012811D1208997
:10B6E00007210022801C0004000C8902F5F70AFAE9
:10B6F000208907210022801D0004000C8902F5F733
:10B7000001FA208930800E98417840200155F807D1
:10B7100001D00120C003079908432080A88A002196
:10B7200060804720E8820120E881DD483C34AC603D
:10B730006860A88AE6F7EEFA009809B0F0BD70B527
:10B74000056904006868002801D0E6F706F90020C2
:10B7500020612800E6F701F970BD00690022431856
:10B760002033490008185A77C287704700690022C1
:10B7700043182033490008185A77C287704710B51C
:10B78000C84C0100A0691022401CA06100010019F2
:10B790000E30891CFAF720F80120207710BD70B513
:10B7A0000D00B74904005831BFA0FEF755F8BD4958
:10B7B0002804000CC88000228C804A618A61012222
:10B7C0004A7770BDF8B5B74F3F2438004169E402AD
:10B7D00003003A7F806909191E3304010025890896
:10B7E000012A02D0022A0CD009E0AE4E220000202D
:10B7F000FDF74EFD7069B561001970613D7700205D
:10B80000F8BDA84E22000020FDF742FD7069B56129
:10B81000001900247061A6A0FEF71EF8641C0A2C13
:10B82000F9DB0A203D77FEF7F5F9FEE79D48002198
:10B83000022241770277A3480170080070477CB567
:10B840000C008F4906008C3197A0FEF705F84720C1
:10B85000FFF78AFE050069469BA0FDF7FDFFA18862
:10B8600068460170090A4170A1798170E088010A77
:10B870006846C170E1890171090A417100212800FF
:10B88000FFF788FE0200300208300104C120090CD5
:10B8900012230001E6F7E4F8002817D01221017006
:10B8A0002989891C818041800A21C18069460988D3
:10B8B0000181694649884181218981816189C181EC
:10B8C000694689880182E6F7E4F87CBD82A0FDF72D
:10B8D000C3FFFBE7F8B506000C004720FFF744FE66
:10B8E00005006946200A0C70487000212800FFF707
:10B8F00051FE0200300208300104C120090C0A2365
:10B900000001E6F7ADF8122101702989891D8180B7
:10B910000221C180694609880181E6F7BAF8F8BDBD
:10B92000F7B55749140078318EB05FA0FDF794FF4A
:10B93000607921790002014368460183E079A579A5
:10B940000002054368464583627A207AE37A120250
:10B950001043A27A1B021A43160406430796E07BA3
:10B96000A77B00020743684647843C0066A0FDF7BA
:10B9700073FF290069A0FDF76FFF31006CA0FDF790
:10B980006BFF21006FA0FDF767FF74490798744DA6
:10B9900001260027884230D172A06E70FDF75CFF4F
:10B9A00075491022002009ABFDF7A9FC6846418EBD
:10B9B00072A0FDF751FF0B9976A0FDF74DFF684689
:10B9C000018D79A0FDF748FF6846408B81087BA078
:10B9D000A980FDF741FF6846018D008B814221D08F
:10B9E000A8881121C90188421CD800281AD06846AD
:10B9F000408E844216D12E701EE05F491022002036
:10BA000009AB6F70FDF77BFC6846418E5BA0FDF7CC
:10BA100023FF0B995FA0FDF71FFF6846018D62A011
:10BA2000FDF71AFF2878012806D00E9809A9FFF71C
:10BA300006FF002011B0F0BD22486F8006700C2177
:10BA400068462F7001800E214180FF212D318780B3
:10BA5000C18001F01AF90E980021FFF73BFFE8E7DB
:10BA6000F3B548780F783E4D0C000002074389B0CB
:10BA700003D16878012801D0AAE0EFE0ACE0000033
:10BA800030F20100C0FF00006372656174655F649D
:10BA90006220737461747573203D2025780D0A004F
:10BAA00000F30100CC23400025730D0A00000000C4
:10BAB0007761697420666F722072657365742121E5
:10BAC000210D0A00310040006E6F746920203D2076
:10BAD000307825780D0A00004B455F4D53475F4194
:10BAE0004C4C4F435F44594E2047415454435F539D
:10BAF000454E445F4556545F434D4420203D3D2014
:10BB00004E554C4C200D0A0072784864722E7665B2
:10BB100072203D202578200D0A00000072784864CC
:10BB2000722E6C656E203D202578200D0A000000E5
:10BB300072784864722E756964203D202578200D46
:10BB40000A00000072784864722E726F6D5F76652D
:10BB500072203D202578200D0A000000424242421A
:10BB6000E00640006170702070617274207570672B
:10BB7000726164650D0A0000045C0000496D67484D
:10BB800064722E726F6D5F766572203D202578207D
:10BB90000D0A0000496D674864722E756964203D86
:10BBA000202578200D0A0000496D674864722E76C2
:10BBB0006572203D202578200D0A00006F616442E7
:10BBC0006C6B546F74203D202578200D0A00000016
:10BBD00038A0FDF741FE35E03E491022002001ABC0
:10BBE000FDF78DFBE079A679617C00020643207C9D
:10BBF000090208430690E17AA07A627B09020843B1
:10BC0000217B1202114309040143721C6846028120
:10BC10000020E88030A0FDF71FFE0096AB886A8800
:10BC2000002130A0FDF718FE6846018932003AA0D5
:10BC3000FDF712FE6888002804D16846418A0698FC
:10BC4000814202D003200BB0F0BDA88881003000F3
:10BC50001039FFF7A4FD2000FFF791FD6988B94274
:10BC600017D1002911D0E888401CE8802000FFF798
:10BC700086FDA888E988401E814206D12DA0FDF7E7
:10BC8000EBFD69880998FFF725FE6888401C6880ED
:10BC900002E00998FFF71EFE6888A988884204D14F
:10BCA00028A0FDF7D9FDFFF7C1FD0020CBE729480B
:10BCB000704700006F6164496D67426C6F636B573A
:10BCC000726974653A20554E4B4E4F574E20554978
:10BCD000440D0A00045C0000756964203D2025784D
:10BCE0000D0A0000626C6B4E756D203D202578209A
:10BCF0002C6F6164426C6B4E756D2025782C6F61E2
:10BD000064426C6B546F742025782C766572202504
:10BD100078200D0A00000000496D674864722E7695
:10BD20006572203D2025782C20766572203D2025E7
:10BD3000780D0A006C61737420626C6F636B200D68
:10BD40000A00000075706461746520646F776E216D
:10BD50000D0A000078F20100F8B50C00A0491E00A1
:10BD60001700A0A0FDF778FD3800E6F708F8472097
:10BD7000FFF7FAFB05002078012804D8EFF758F800
:10BD80009A49884212D19A4802233A003100E5F7D5
:10BD900067FE217801702178012901D9402100E056
:10BDA00089214170E5F775FE0020F8BDA178237860
:10BDB0002A003D3299542278A1880C3C5200521935
:10BDC000D187012000216C6040356970F8BD10B545
:10BDD00088A0FDF740FD022010BD814910B5183143
:10BDE00080A0FDF739FD022010BDFFB5002081B015
:10BDF0000700009003981D000C001E0AE5F7BFFF26
:10BE0000002805D00398E5F7BAFF012871D074E047
:10BE10004720FFF7A9FB00280CD0E279A179120294
:10BE200011434022125CD2072AD0002906D00129F2
:10BE300004D025E077A0FDF70FFDFBE702892388FA
:10BE40009446D21C93420ED1012906D0811920318B
:10BE50004A7F520852004A7712E0811920314A7F06
:10BE600001231A43F7E76246D21D934208D12A0AFA
:10BE70005200012919D01118CA8F52085200CA87DE
:10BE8000018922888B1C9A4214D10A30192106009C
:10BE9000F9F7BCFCA288A11D3000F9F79DFCA18830
:10BEA00032000020FFF73CFD15E01118CA8F012376
:10BEB0001A43E4E7891D8A420DD123301921060077
:10BEC000F9F7A4FCA288A11D3000F9F785FC310028
:10BED0000020FFF7C5FD5448039A04232900E5F725
:10BEE000BFFD2188018000998170E5F7D2FD04E053
:10BEF000FFE74EA0FDF7B0FC0227380005B0F0BD0B
:10BF0000FFB500263700472085B0FFF72DFB050061
:10BF1000002414216846F9F779FC0798E5F72FFF0C
:10BF2000002805D00798E5F72AFF01284ED051E0F8
:10BF3000069801882889C21C914204D1022422005B
:10BF400029003D3116E0C21D914204D10224220095
:10BF500029003E310EE0821C914204D119242200B6
:10BF600029000A3106E0821D914207D119242200DE
:10BF7000290023316846F9F72FFC11E0021D914298
:10BF800003D10D2422002CA105E00830814206D106
:10BF90000A2422002CA16846F9F71EFC00E00626C0
:10BFA0002148079A0899A31D801EE5F759FD050051
:10BFB00044802200401D6946F9F70EFC069800886F
:10BFC000288028002E71E5F764FD03E021A0FDF72D
:10BFD00043FC0227380009B0F0BD00207047000084
:10BFE00008F301002573200D0A000000FFFF000088
:10BFF000014700006F6164735F666663315F75704F
:10C00000645F7265715F68616E646C6572200D0AB1
:10C01000000000006F6164735F656E76203D3D2017
:10C020006E756C6C0D0A0000160C00004F414453F5
:10C030005F425553590D0A00496D67204964656E8A
:10C040007469667900000000496D6720426C6F6377
:10C050006B0000006F616473204F4144535F425591
:10C060005359200D0A000000FFB5FF2705002137B6
:10C070001E000121380087B0E5F70AFC04003900F2
:10C08000F9F7C4FB0020C0430590109AE01DF93079
:10C09000417F9278002311434177089869460088D0
:10C0A0005C4A088230001E210840A98A009302924F
:10C0B0000191039058491B2305AA04A800F064FCD1
:10C0C000070007D0002C02D02000E5F746FC38001E
:10C0D0000BB0F0BD68462C61008A08990880208169
:10C0E000F00701D00120C003099908432080A88AE5
:10C0F000002160804D20E8820120FF34E88147481C
:10C100001D34AC606860A88AE5F704FEDFE770B50F
:10C11000056904006868002801D0E5F71EFC0020CE
:10C1200020612800E5F719FC70BD00694900081876
:10C130000100002220318A74CA7420310A724A72C6
:10C140008A77CA774031FF308A720130CA72027131
:10C1500042718276C2767047006949000818010072
:10C16000002220318A74CA7420310A724A728A7796
:10C17000CA774031FF308A720130CA72027142714F
:10C180008276C276704710B504004D20FFF7ECF9B7
:10C1900000891B2C03D200190004000C10BD0020E4
:10C1A00010BD70B50C000021FFF7F4F963780200B0
:10C1B000C120082100010833E5F752FC0500E08AA0
:10C1C000142811D012202870E08AFFF7DCFFA88025
:10C1D0006078A11CE880280062780830F9F7FCFA42
:10C1E0002800E5F756FC70BD1320ECE70948D8306D
:10C1F000704770B504000D004D20FFF7B5F90289B6
:10C20000802011001B318C4202D2A01A288000200D
:10C2100070BD00003CF30100261800004CF4010042
:10C2200030B5FF4B0022D5000400EC409C540C00BC
:10C23000EC409D18521C042A2C71F4DB30BD815453
:10C24000090A8018417070470FB4F0B5A1B0802181
:10C250006846F9F7DBFA20A8068B68460222310A05
:10C260000670417020A8418B6846FFF7E8FF042460
:10C27000002001276D46390081400904090CB143B3
:10C280006AD10300F9F702EB0C68070F171F293179
:10C290003941565A5F6820A8818B22006846FFF713
:10C2A000CEFF022056E020A8C18B22006846FFF78F
:10C2B000C6FF03204EE020A8018C22006846FFF74D
:10C2C000BEFF042046E029982919020A2855000CCF
:10C2D0004A7088700520E41CCDE720A8018D22005B
:10C2E0006846FFF7ACFF062034E020A8418D22000D
:10C2F0006846FFF7A4FF07202CE020A8818D2200CC
:10C300006846FFF79CFF082024E020A8C18D038E1B
:10C3100028A8807C220084466846FFF790FFA41C72
:10C32000220019006846FFF78AFFA41C60462855C2
:10C33000092006E0002028550A2002E000202855A8
:10C340000B20641C97E720A8C18E22006846FFF7E7
:10C3500076FF0C20A41C8EE7401C0F288BDB2106E7
:10C36000090E0422684601F095FE21B0F0BC08BC1D
:10C3700004B0184708B50021009101216A461170E8
:10C380005070A74A273A5070121D11705070072242
:10C390000221684601F07EFE08BDF0B5A04D0023E5
:10C3A000183DDE000400F440EC540C00F440EF189B
:10C3B000BC701400F4405B1C022B3C71F1DBF0BD3F
:10C3C000F0B5974D0023123DDE000400F440EC541C
:10C3D0000C00F440EF18BC701400F4405B1C022BFE
:10C3E0003C71F1DBF0BDF0B58D4D00230C3DDE005E
:10C3F0000400F440EC540C00F440EF18BC7014003E
:10C40000F4405B1C022B3C71F1DBF0BD844B213B03
:10C41000187059709A70704708B5162800D1082016
:10C420000022009280236A4613705070917014228B
:10C430000321684601F02EFE08BD79482738407870
:10C44000012802D00D2801D0042070470120704738
:10C45000734900202739887070477149FF202739B8
:10C460008870704738B502006D48FF242738002ACD
:10C4700084701AD0002918D01378002B02D0012B19
:10C480000CD003E00578FF2D00D184701800FFF771
:10C49000D4FF042805D0082B08D009E000248470BC
:10C4A00006E004211800FFF7B7FF38BD022902D0CB
:10C4B00003290AD018E050786946012803D01620D5
:10C4C00001F0E9FD38BD0820FAE7022B02D0032B6A
:10C4D00002D009E0907802E090784006400E517852
:10C4E000000208186946088018006946E8E738B570
:10C4F0004B4C0023273C0093FF28E07004D0052814
:10C5000004D0062802D00AE0A3700CE0012A06D964
:10C510006A461070087850704878907005E00028DE
:10C5200009D002280BD069460870172203216846FB
:10C5300001F0B0FD38BD02206946087002E069468E
:10C54000087001204870F0E770B5050035A0FDF7D0
:10C5500083F90024295D34A0FDF77EF9641C2406CC
:10C56000240E062CF6D331A0FDF776F92C4E0024CC
:10C570001E3E315D2CA0FDF76FF9641C2406240ECD
:10C58000062CF6D3264906221E392800F9F749F968
:10C59000002804D027A0FDF75FF9002070BD2BA074
:10C5A000FDF75AF9FF2070BD10B5FFF7CDFFFF284A
:10C5B00002D11B492739087010BD1CB50400062A9A
:10C5C00011D9002002000090019068468B189B78DA
:10C5D0008354521C062AF9DBFFF7E6FF0622A01C53
:10C5E0006946F9F7F9F81CBDF0B50E00050085B0F5
:10C5F00075D0022E73D96978287802240902401870
:10C6000007043F0C6846078000200121814009068D
:10C61000090EB9435DD1002833D001283BD021E079
:10C620000F07400072783A00257800000D0A6D79F6
:10C630003A0000000D0A556E6C6F636B436F6465C2
:10C64000206661696C65640D0A0000000D0A556E74
:10C650006C6F636B436F646520737563636573739D
:10C660000D0A000002281ED0032827D0A11C8E42EC
:10C670002FDB291949780A02295D11436A46D181C5
:10C6800026E0062E05D9320029006846FFF795FFFF
:10C69000A41D0120B9E7611C8E421ADB295D6A46A0
:10C6A000641C117215E0A11C8E4212DB2919497815
:10C6B0002A5D09020A4369464A8109E0A11C8E42AB
:10C6C00007DB291949780A02295D11436A469181DD
:10C6D000A41C401C052898DB684601F033FD05B01A
:10C6E000F0BD8E490020087070478C480021817091
:10C6F000017070478948C078704770B515000E000A
:10C7000002241000E5F73BFB002810D14D20FEF776
:10C710002BFF040001212800E5F7FCFA310020007E
:10C72000FFF73FFD00212800E5F7F4FA0024200080
:10C7300070BDFFB581B000266846068008880D00F0
:10C7400017006946FFF755FD040075480499062354
:10C750003A00E5F785F92988002C018009D169465E
:10C76000098808290AD0152908D0182906D00324D9
:10C7700046800471E5F78DF90020B0E70221418081
:10C78000F7E7FFB50C0083B0002069460880180A5F
:10C79000019020881F00FFF72CFD050049D14D2096
:10C7A000FEF7E2FE69460988A3793A0A5200082991
:10C7B00008D0152911D0182919D0142921D01A29E7
:10C7C0001FD008E0A188022905D11018803083729B
:10C7D000E179C1722DE080252BE0A1880229FAD1F0
:10C7E0001018FF3001300371E179417121E0A18817
:10C7F0000229F0D11018FF3001308376E179C1763B
:10C8000017E00199FEF7CEFE01004648059A17236E
:10C81000E5F726F9A2880600A11DF8F7DDFF0198CB
:10C8200070752079307568460088B0753000E5F77E
:10C8300030F93B48059A04233900801EE5F710F9CA
:10C84000218801808570E5F724F9002007B0F0BD4C
:10C85000FFB581B000206946088002981F0000885B
:10C86000FFF7C7FC0600002425004D20FEF77CFEE4
:10C87000002E2BD16846008802280CD007280ED045
:10C880000A2810D00C2812D00E2814D0122816D046
:10C89000102818D01AE0214D0824273516E01F4D26
:10C8A00002242D1D12E01D4D06240F350EE01B4DF8
:10C8B000062415350AE0194D06241B3506E0174DF0
:10C8C0000624213502E0154D0324AD1D1448039ABA
:10C8D000A31D3900001FE5F7C3F807000298002EDA
:10C8E000008838803E717C8006D1002D04D0220063
:10C8F0002900781DF8F770FF3800E5F7CAF8002026
:10C90000EDE610B514001000E5F739FA41084900CA
:10C910002000E5F7FFF9002010BD0000E806400008
:10C92000180C0000044D00007FB504005EA669CE1F
:10C9300003966E4629C60020042A0BD0022A09D08D
:10C9400010226844F8F748FF102220006946F8F7E3
:10C9500043FF7FBD0C20F4E77FB5040056A669CEE7
:10C9600003966E4629C60020042A0BD0022A09D05D
:10C9700010226844F8F730FF102220006946F8F7CB
:10C980002BFF7FBD0C20F4E7FFB51F00160000252C
:10C99000012081B00EE0002E06D0C108715C420774
:10C9A000520FD140C90702D06D1C2D062D0E401C20
:10C9B0000006000EB842EED328001621484303219A
:10C9C0001630E4F765FF04000198022200882080F9
:10C9D00065710B9860800D98410849004020014323
:10C9E0002171A01D02A9FFF79FFF002001250090E3
:10C9F00027E0002E06D0E808305C6907490FC840E0
:10CA0000C0071BD00C98E90009180098162358435A
:10CA1000CA88001902858A8842854B885204C384DB
:10CA2000930F04D0920F012A01D0022A11D0098855
:10CA3000C1820098401C0006000E00906D1C2D065F
:10CA40002D0EBD42D5D32000F4F7A3FA050005D082
:10CA500023E002221630FFF77FFFEAE721880198E2
:10CA600001800021080013E0002E06D0C208B25C4D
:10CA700043075B0FDA40D20707D0019A0A9B12786E
:10CA80005218491C0906090E1A54401C0006000ED3
:10CA9000B84202D20A9A002AE6D12000E4F75DFFEC
:10CAA000280005B0F0BD0000FB349B5F80000080D3
:10CAB00000100000000000005914FB69925255A3B9
:10CAC000E8114CC4102C8DD110B59D484021F8F7C9
:10CAD0009DFE9C490520E5F7E1F800210520E5F7DA
:10CAE00019F9FBF7D3FB01F0E3FB00280CD0FBF7AF
:10CAF000CDFB01F0DDFB924C6071FBF7C7FB010041
